:0300000002253C9A
:0C253C00787FE4F6D8FD758171022583DC
:101441005452414646494320544C50434F2D303865
:101451002053470053544152542055503A005445AB
:101461004C455049434F20544C50434F2D30382068
:101471005347002C003A00533A00503A005B315D6B
:1014810020536574205B325D204D6F6E69746F72FD
:10149100004D474700534E4E00534C5300524142BA
:1014A100004B4D53004A4D5400534254004A414EA3
:1014B10000464542004D415200415052004D4549C0
:1014C100004A554E004A554C004147530053455080
:1014D100004F4B54004E4F560044455300496E7027
:1014E10075742053657474696E67005B315D204BC0
:1014F1006579706164005B325D204B6F6D7075744E
:101501006572202873657229005B335D204B6F6D16
:1015110070757465722028696E7429004D6F6E694B
:10152100746F720052454400475245004D41494E87
:10153100204D454E55205B315D2D5B365D202020D1
:10154100005B43414E5D4558495420202020202016
:101551002020202020005B315D20536574207761BD
:101561006B747520202020202020005B325D2053E9
:1015710065742074616E6767616C202020202000F3
:101581005B335D205365742068617269206C696208
:1015910075722020005B345D205365742073746183
:1015A100727475702020202020005B355D2053650A
:1015B1007420504C414E2020202020202020005B10
:1015C100365D205365742070726F6720686172699F
:1015D100616E20004B6F6D707574657220287365A4
:1015E1007269616C29004B6F6D707574657220288A
:1015F100696E7465726E65742900534554205741B4
:101601004B5455003A20203A005B434F525D45440C
:1016110049542F53415645005B43414E5D4558495E
:1016210054005345542054414E4747414C00202C0F
:101631002020202F20202F00534554205354415265
:101641005455500057616B74752053746172742046
:1016510055703A0050696C696820506C616E005099
:101661006C616E3A005B434F525D45444954202002
:101671005B43414E5D4558495400506C616E2D00ED
:101681005B434F525D20454449542F534156450019
:10169100312E204C313A20202020202D20202020C6
:1016A10000322E204C323A20202020202D202020D4
:1016B1002000506C616E2D20202000312E204C31F5
:1016C100203D202020202D20202000322E204C32B1
:1016D100203D202020202D20202000332E204C339F
:1016E100203D202020202D20202000342E204C348D
:1016F100203D202020202D20202000352E204C357B
:10170100203D202020202D20202000362E204C3668
:10171100203D202020202D20202000372E204C3756
:10172100203D202020202D20202000382E204C3844
:10173100203D202020202D202020005B43414E5DB4
:10174100204558495420202020200050696C6968A8
:101751002050726F6772616D2048617269616E001D
:10176100507267726D2048617269616E3A20200083
:1017710031284D474729202D20372853425429002D
:10178100507267726D2048617269616E205B205DE5
:011791000057
:1027010001346E012F3D010800014700013017011E
:10271100370601320001310101330C013803023562
:1027210007DD014502100D0000000000000000005F
:1027310000000000000000101D010000000000006A
:10274100000000000000000000014801012E01010D
:022751002D0059
:0927BC0012281AD2817F057E006B
:1027C500E4FDFCC3ED9FEE6480F8EC648098501541
:1027D500E4FBFA0BBB00010AEB64644A70F50DBD1E
:0527E50000010C80DE84
:0127EA0022CC
:10281A00EF30E004D2848002C284EF30E104D28532
:10282A008002C285EF30E204D2868002C286EF308F
:08283A00E303D28722C28722CA
:07286A007E001227C57F0369
:08287100C2801227BCC28122C3
:0A289C00E4FF1228717F0102287189
:1025C800752F3D12289C7F327E001227F4E4FD7F90
:0125D8000101
:0425D9008F6DA90554
:1025DD00E56DB4010FE92480FFF56E7804A2E713D1
:1025ED00D8FB803AE56DB4020FE924C0FFF56E7893
:1025FD0004A2E713D8FB8026E56DB4030FE92494FC
:10260D00FFF56E7804A2E713D8FB8012E56DB404D4
:10261D001EE924D4FFF56E7804A2E713D8FBF56FFD
:0F262D00EF540FF570AF6F122871AF7012287154
:01263C00227B
:10275400E4FF12281A7FC812286A7F3212286A7F7F
:102764006E12286A7F021228717F021228717F0874
:10277400122871E4FF1228717F0C122871E4FF12F1
:0727840028717F0602287195
:02284200AE07DF
:10284400EE540FF9EE54F0FFD2807804A2E713D8C7
:10285400FBFF1227BCC281AF0112281AD2817F0567
:052864001227C5C2812E
:01286900224C
:06278B007B007A00790AD0
:062791008B6D8A6E896F5A
:10279700E4F570F571AB6DAA6EA96F8571828570CE
:1027A70083121D02FF600D1228420571E57170E565
:0427B700057080E148
:0127BB0022FB
:0927EB007F5F1228427F327E005C
:1027F400E4FDFCC3ED9FEE6480F8EC648098501512
:10280400E4FBFA0BBB00010AEB64644A70F50DBDEE
:0528140000010C80DE54
:01281900229C
:0B28910012275412263D120D1A80FB86
:10263D0085452F1225D57BFF7A147941122791D329
:10264D00E52F648094804040E4FD7F021225D97B04
:10265D00FF7A147955122791E52F75F00A121CE0B7
:10266D002430F50AE52F75F00A121CE0AFF0EF24C7
:10267D0030F50B7D0A7F021225D912278B152F7F7E
:10268D00E87E031227F480B77FE87E031227F41249
:09269D00289C7F327E000227F424
:100D1A001225C87BFF7A14795F1227917D047F021E
:100D2A001225D97BFF7A1479741227917D027F03E9
:100D3A001225D97BFF7A1479761227917D057F03D4
:100D4A001225D97BFF7A1479761227917D097F03C0
:100D5A001225D97BFF7A1479781227917D0E7F03A9
:100D6A001225D97BFF7A14797B122791E4FD7F043F
:100D7A001225D97BFF7A14797E122791E5346431E2
:100D8A00700302108EE5346432700302108EE52F70
:100D9A006532700302108685322F1228AF1228B3EB
:100DAA001228B4E53814B407004003020E45900D2A
:100DBA00C675F003A4C58325F0C58373020DDB0253
:100DCA000DEA020DF9020E08020E17020E26020E95
:100DDA00357D017F021225D97BFF7A1479928058DA
:100DEA007D017F021225D97BFF7A14799680497D8D
:100DFA00017F021225D97BFF7A14799A803A7D0104
:100E0A007F021225D97BFF7A14799E802B7D017F80
:100E1A00021225D97BFF7A1479A2801C7D017F02F8
:100E2A001225D97BFF7A1479A6800D7D017F0212E3
:100E3A0025D97BFF7A1479AA122791E53375F00A2E
:100E4A00121CE02430F50AE53375F00A121CE0AFF3
:100E5A00F0EF2430F50B7D067F021225D912278B7D
:100E6A00E53114B40C004003020F5F900E8375F055
:100E7A0003A4C58325F0C58373020EA7020EB70229
:100E8A000EC7020ED7020EE6020EF5020F04020F7B
:100E9A0013020F22020F31020F40020F4F7D097F0A
:100EAA00021225D97BFF7A1479AE020F5C7D097F85
:100EBA00021225D97BFF7A1479B2020F5C7D097F71
:100ECA00021225D97BFF7A1479B6020F5C7D097F5D
:100EDA00021225D97BFF7A1479BA80767D097F02BE
:100EEA001225D97BFF7A1479BE80677D097F0212A9
:100EFA0025D97BFF7A1479C280587D097F02122591
:100F0A00D97BFF7A1479C680497D097F021225D9D7
:100F1A007BFF7A1479CA803A7D097F021225D97B30
:100F2A00FF7A1479CE802B7D097F021225D97BFFA7
:100F3A007A1479D2801C7D097F021225D97BFF7A27
:100F4A001479D6800D7D097F021225D97BFF7A1488
:100F5A0079DA122791AE35AF367C037DE8121D414E
:100F6A00EF2430F50AAE35AF367C037DE8121D4119
:100F7A007E007F64CFCDCFCECCCE121D41EF243080
:100F8A00F50B7D0D7F021225D912278BAE35AF36B0
:100F9A007C007D64121D417E007F0ACFCDCFCECC6E
:100FAA00CE121D41EF2430F50AAE35AF367C007DF6
:100FBA000A121D41ED2430F50B7D0F7F021225D94F
:100FCA0012278BE53075F00A121CE02430F50AE589
:100FDA003075F00A121CE0AFF0EF2430F50BE4FD97
:100FEA007F031225D912278BE53775F00A121CE008
:100FFA002430F50AE53775F00A121CE0AFF0EF2449
:10100A0030F50B7D037F031225D912278BE5327544
:10101A00F00A121CE02430F50AE53275F00A121CB7
:10102A00E0AFF0EF2430F50B7D067F031225D912CD
:10103A00278BE54875F00A121CE02430F50AE548CA
:10104A0075F00A121CE0AFF0EF2430F50B7D0B7F30
:10105A00031225D912278BE52E75F00A121CE024FB
:10106A0030F50AE52E75F00A121CE0AFF0EF2430D5
:10107A00F50B7D107F031225D912278B1228A68F14
:10108A0034020D86E53424CE601204701EE534B4B1
:10109A0031071228A68F3480F402249FE534B43233
:0C10AA00071228A68F3480F4121A582276
:10249F001225CB7BFF7A1479DE122791E4FD7F02A0
:1024AF001225D97BFF7A1479EC122791E4FD7F0373
:1024BF001225D97BFF7A1479F7122791E4FD7F0457
:1024CF001225D97BFF7A15790A122791E534646DAD
:1024DF0060451228A68F34E53424CE601814602688
:1024EF00240270E8E534B431071228A68F3480F443
:1024FF0012179280D7E534B432071228A68F348092
:10250F00F412287980C6E534B433071228A68F3425
:10251F0080F412288580B5E534B46D071228A68F94
:0D252F003480F412289C7F327E000227F4D5
:101A58001225C87BFF7A15791D122791E4FD7F02B4
:101A68001225D97BFF7A157925122791E4FD7F038A
:101A78001225D97BFF7A157929122791E534646DEF
:101A88007003021CCAE52F65327003021CC285323E
:101A98002F1228AF1228B31228B4E52D30E0177D95
:101AA800047F021225D97F201228427D047F031269
:101AB80025D97F2A801AE52D20E0187D047F02129F
:101AC80025D97F2A1228427D047F031225D97F2039
:101AD800122842E52DA2E71330E0177D057F021298
:101AE80025D97F201228427D057F031225D97F2A18
:101AF800801DE52DA2E71320E0187D057F02122541
:101B0800D97F2A1228427D057F031225D97F20120A
:101B18002842E52DA2E713A2E71330E0177D067FE0
:101B2800021225D97F201228427D067F031225D96B
:101B38007F2A8020E52DA2E713A2E71320E0187D75
:101B4800067F021225D97F2A1228427D067F0312BA
:101B580025D97F20122842E52D7803A2E713D8FB68
:101B680030E0177D077F021225D97F201228427D99
:101B7800077F031225D97F2A8021E52D7803A2E764
:101B880013D8FB20E0187D077F021225D97F2A127F
:101B980028427D077F031225D97F20122842E52D90
:101BA8007804A2E713D8FB30E0177D087F021225DE
:101BB800D97F201228427D087F031225D97F2A80E9
:101BC80021E52D7804A2E713D8FB20E0187D087FD3
:101BD800021225D97F2A1228427D087F031225D9AF
:101BE8007F20122842E52D7805A2E713D8FB30E0C4
:101BF800177D097F021225D97F201228427D097F8F
:101C0800031225D97F2A8021E52D7805A2E713D86C
:101C1800FB20E0187D097F021225D97F2A1228426D
:101C28007D097F031225D97F20122842E52D7806E9
:101C3800A2E713D8FB30E0177D0A7F021225D97F6F
:101C4800201228427D0A7F031225D97F2A8021E5A8
:101C58002D7806A2E713D8FB20E0187D0A7F021230
:101C680025D97F2A1228427D0A7F031225D97F2091
:101C7800122842E52D7807A2E713D8FB30E0177D3C
:101C88000B7F021225D97F201228427D0B7F031279
:101C980025D97F2A8021E52D7807A2E713D8FB20D4
:101CA800E0187D0B7F021225D97F2A1228427D0B6E
:101CB8007F031225D97F201228421228A68F3402CA
:101CC8001A84E534B46D071228A68F3480F41228DC
:081CD8009C7F327E000227F41C
:10179200E4F5081225CB7BFF7A15792D122791E407
:1017A200FD7F021225D97BFF7A157942122791E437
:1017B200FD7F031225D97BFF7A157957122791E411
:1017C200FD7F041225D97BFF7A15796C122791E5EA
:1017D20034646D7003021A101228A68F34E5346443
:1017E2002D6009E534642B6003021979E534B42DC8
:1017F2000BD3E5086480948040021508E534B42BCD
:101802000BC3E5086480948450020508C3E50864AC
:10181200809480401CD3E508648094805013E508CE
:10182200F40475F003A42439F876FF0876150876D7
:101832002DC3E50864809480401DD3E5086480943C
:10184200815014C37401950875F003A42439F87605
:10185200FF087615087642C3E50864809480401D2F
:10186200D3E508648094825014C37402950875F01D
:1018720003A42439F876FF087615087657C3E508DD
:1018820064809480401DD3E508648094835014C31F
:101892007403950875F003A42439F876FF087615C9
:1018A20008766CC3E50864809481401DD3E5086422
:1018B2008094845014C37404950875F003A42439E9
:1018C200F876FF087615087681C3E508648094826D
:1018D200401DD3E508648094845014C374059508B0
:1018E20075F003A42439F876FF087615087696C3B6
:1018F200E50864809483401DD3E508648094845095
:1019020014C37406950875F003A42439F876FF0809
:1019120076150876ABC3E50864809484401DD3E550
:1019220008648094845014C37407950875F003A466
:101932002439F876FF0876150876C01225D5AB391A
:10194200AA3AA93B122791E4FD7F021225D9AB3CAA
:10195200AA3DA93E122791E4FD7F031225D9AB3F90
:10196200AA40A941122791E4FD7F041225D9AB4276
:10197200AA43A944122791E53424CE602814603A80
:1019820014604C14605E146070240560030217D169
:10199200E534B431071228A68F3480F4E4F5081236
:1019A20010B60217D1E534B432071228A68F34805C
:1019B200F4E4F50812078B0217D1E534B4330712A9
:1019C20028A68F3480F4E4F5081226A60217D1E582
:1019D20034B434071228A68F3480F4E4F508121EBA
:1019E200B50217D1E534B435071228A68F3480F436
:1019F200E4F5081220650217D1E534B4360712283F
:101A0200A68F3480F4E4F5081222D10217D1E5340E
:101A1200B46D071228A68F3480F41225CB7BFF7A8F
:101A22001479DE122791E4FD7F021225D97BFF7A19
:101A32001479EC122791E4FD7F031225D97BFF7AFA
:101A42001479F7122791E4FD7F041225D97BFF7ADE
:061A520015790A0227913C
:0C2879001225CB7BFF7A1579D502279140
:0C2885001225CB7BFF7A1579E702279122
:1010B60012289C1227F07D037F011225D97BFF7A27
:1010C6001579FB1227917D027F021225D97BFF7AC3
:1010D600167905122791E4FD7F031225D97BFF7A45
:1010E60016790A122791E4FD7F041225D97BFF7A2F
:1010F600167919122791E534646D70030213F9E528
:101106003075F00A121CE02430F50AE53075F00A55
:10111600121CE0AFF0EF2430F50BE4FD7F02122540
:10112600D912278BE53775F00A121CE02430F50A30
:10113600E53775F00A121CE0AFF0EF2430F50B7DB1
:10114600037F021225D912278BE53275F00A121C8D
:10115600E02430F50AE53275F00A121CE0AFF0EF34
:101166002430F50B7D067F021225D912278B122813
:10117600A68F34E534642F60030210FCE534B42FE7
:10118600071228A68F3480F4E534642F7003021307
:10119600E7E53075F00A121CE02430F50AE53075F3
:1011A600F00A121CE0AFF0EF2430F50BE4FD7F02ED
:1011B6001225D912278BE53775F00A121CE0243068
:1011C600F50AE53775F00A121CE0AFF0EF2430F5AA
:1011D6000B7D037F021225D912278BE53275F00AA3
:1011E600121CE02430F50AE53275F00A121CE0AF55
:1011F600F0EF2430F50B7D067F021225D912278BDE
:101206001227F01228A68F34E54714606A1470037B
:101216000212C714700302131214700302135C1433
:1012260070030213A0240560030213E1E4FD7F02AC
:101236001225D9C3E534648094B050030213E1D378
:10124600E534648094B940030213E1E53424D07593
:10125600F00AA4FFE53075F00A121CE0AEF0EF2E9E
:10126600F53085342FE534B52F071228A68F348044
:10127600F47547010213E17D017F021225D9C3E50A
:1012860034648094B050030213E1D3E5346480944F
:10129600B940030213E1E53075F00A121CE0AFF025
:1012A600C3E5309FFFE53424D02FF53085342FE594
:1012B60034B52F071228A68F3480F475470202131F
:1012C600E17D037F021225D9C3E534648094B050D2
:1012D600030213E1D3E534648094B940030213E1B9
:1012E600E53424D075F00AA4FFE53775F00A121C20
:1012F600E0AEF0EF2EF53785342FE534B52F071223
:1013060028A68F3480F47547030213E17D047F021B
:101316001225D9C3E534648094B050030213E1D397
:10132600E534648094B940030213E1E53775F00AA9
:10133600121CE0AFF0C3E5379FFFE53424D02FF54C
:101346003785342FE534B52F071228A68F3480F45D
:101356007547040213E17D067F021225D9C3E534E1
:10136600648094B04075D3E534648094B9506CE5DC
:101376003424D075F00AA4FFE53275F00A121CE099
:10138600AEF0EF2EF53285342FE534B52F0712284F
:10139600A68F3480F475470580417D077F021225AC
:1013A600D9C3E534648094B04031D3E53464809485
:1013B600B95028E53275F00A121CE0AFF0C3E532E9
:1013C6009FFFE53424D02FF53285342FE534B52F31
:1013D600071228A68F3480F4E4F5471227EB021192
:1013E6008EE534B42F071228A68F3480F4E4F5472F
:1013F6000210FCE534B46D071228A68F3480F4126F
:1014060025CB7BFF7A15792D122791E4FD7F0212F9
:1014160025D97BFF7A157942122791E4FD7F0312C5
:1014260025D97BFF7A157957122791E4FD7F04129F
:0B14360025D97BFF7A15796C02279105
:10078B0012289C1227F07D037F011225D97BFF7A5B
:10079B00167923122791E4FD7F021225D97BFF7A6C
:1007AB0016792F122791E4FD7F031225D97BFF7A4F
:1007BB0016790A122791E4FD7F041225D97BFF7A63
:1007CB00167919122791E534646D7003020CD2E48B
:1007DB00FD7F021225D9E5382430FF122842E5337C
:1007EB0075F00A121CE02430F50AE53375F00A1295
:1007FB001CE0AFF0EF2430F50B7D037F021225D9FF
:10080B0012278BE53175F00A121CE02430F50AE54E
:10081B003175F00A121CE0AFF0EF2430F50B7D06BA
:10082B007F021225D912278BAE35AF367C037DE8BC
:10083B00121D41EF2430F50AAE35AF367C037DE84F
:10084B00121D417E007F64CFCDCFCECCCE121D4189
:10085B00EF2430F50B7D097F021225D912278BAEC1
:10086B0035AF367C007D64121D417E007F0ACFCDF3
:10087B00CFCECCCE121D41EF2430F50AAE35AF36BC
:10088B007C007D0A121D41ED2430F50B7D0B7F02A0
:10089B001225D912278B1228A68F34E534642F60CA
:1008AB00030207D1E534B42F071228A68F3480F446
:1008BB00E534642F7003020CC0E4FD7F021225D9CE
:1008CB00E5382430FF122842E53375F00A121CE09C
:1008DB002430F50AE53375F00A121CE0AFF0EF2473
:1008EB0030F50B7D037F021225D912278BE531756D
:1008FB00F00A121CE02430F50AE53175F00A121CDF
:10090B00E0AFF0EF2430F50B7D067F021225D912F4
:10091B00278BAE35AF367C037DE8121D41EF2430BB
:10092B00F50AAE35AF367C037DE8121D417E007FA4
:10093B0064CFCDCFCECCCE121D41EF2430F50B7D45
:10094B00097F021225D912278BAE35AF367C007D7D
:10095B0064121D417E007F0ACFCDCFCECCCE121DAF
:10096B0041EF2430F50AAE35AF367C007D0A121DFF
:10097B0041ED2430F50B7D0B7F021225D912278B0D
:10098B001227F01228A68F34E547B4090040030262
:10099B000CBA9009A4F82828730209BF0209F902BE
:1009AB000A44020A8E020AD9020B23020B80020BA5
:1009BB00F3020C65E4FD7F021225D9C3E534648094
:1009CB0094B05003020CBAD3E534648094B940035D
:1009DB00020CBAE53424D0F53885342FE534B52F25
:1009EB00071228A68F3480F4754701020CBA7D03D9
:1009FB007F021225D9C3E534648094B05003020CF6
:100A0B00BAD3E534648094B94003020CBAE53424BC
:100A1B00D075F00AA4FFE53375F00A121CE0AEF0B6
:100A2B00EF2EF53385342FE534B52F071228A68F1B
:100A3B003480F4754702020CBA7D047F021225D96B
:100A4B00C3E534648094B05003020CBAD3E534642C
:100A5B008094B94003020CBAE53375F00A121CE01E
:100A6B00AFF0C3E5339FFFE53424D02FF533853446
:100A7B002FE534B52F071228A68F3480F475470362
:100A8B00020CBA7D067F021225D9C3E5346480942B
:100A9B00B05003020CBAD3E534648094B94003021E
:100AAB000CBAE53424D075F00AA4FFE53175F00AD1
:100ABB00121CE0AEF0EF2EF53185342FE534B52F57
:100ACB00071228A68F3480F4754704020CBA7D07F1
:100ADB007F021225D9C3E534648094B05003020C15
:100AEB00BAD3E534648094B94003020CBAE531758E
:100AFB00F00A121CE0AFF0C3E5319FFFE53424D0C0
:100B0B002FF53185342FE534B52F071228A68F34F6
:100B1B0080F4754705020CBA7D097F021225D9C3F3
:100B2B00E534648094B05003020CBAD3E53464808E
:100B3B0094B94003020CBAAF34EF3395E0FEEF24C7
:100B4B00D0FFEE34FFFE7C037DE8121D2FAA06AB0F
:100B5B0007AE35AF36121D41EB2DF536EA3CF535B8
:100B6B0085342FE534B52F071228A68F3480F47502
:100B7B004706020CBA7D0A7F021225D9C3E53464FD
:100B8B008094B05003020CBAD3E534648094B9401E
:100B9B0003020CBAAE35AF367C037DE8121D41C3A0
:100BAB00E5369DFBE5359CFAAF34EF3395E0FEEF70
:100BBB0024D0FFEE34FFFE7C007D64121D2FEF2B43
:100BCB00FBEE3AFAAE35AF36121D41ED2BF536EC96
:100BDB003AF53585342FE534B52F071228A68F3417
:100BEB0080F4754707020CBA7D0B7F021225D9C31F
:100BFB00E534648094B05003020CBAD3E5346480BE
:100C0B0094B94003020CBAAE35AF367C007D64124A
:100C1B001D41C3E5369DFBE5359CFAAF34EF3395AB
:100C2B00E0FEEF24D0FFEE34FFFE7C007D0A121DA8
:100C3B002FEF2BFBEE3AFAAE35AF36121D41ED2BF3
:100C4B00F536EC3AF53585342FE534B52F071228F8
:100C5B00A68F3480F475470880557D0C7F021225D2
:100C6B00D9C3E534648094B04045D3E534648094B3
:100C7B00B9503CAE35AF367C007D0A121D41C3E541
:100C8B00369DFFE5359CFEAD34ED3395E0FCED2450
:100C9B00D0FDEC34FFCD2FF536ED3EF53585342FF9
:100CAB00E534B52F071228A68F3480F4E4F54712EC
:100CBB0027EB0208BBE534B42F071228A68F34802C
:100CCB00F4E4F5470207D1E534B46D071228A68F7B
:100CDB003480F41225CB7BFF7A15792D122791E402
:100CEB00FD7F021225D97BFF7A157942122791E4F9
:100CFB00FD7F031225D97BFF7A157957122791E4D3
:0F0D0B00FD7F041225D97BFF7A15796C022791A1
:1026A60012289C1227F0E534646D60071228A68F65
:1026B6003480F3E534B46D071228A68F3480F41203
:1026C60025CB7BFF7A15792D122791E4FD7F021227
:1026D60025D97BFF7A157942122791E4FD7F0312F3
:1026E60025D97BFF7A157957122791E4FD7F0412CD
:0B26F60025D97BFF7A15796C02279133
:101EB50012289C1227F07D027F011225D97BFF7A1B
:101EC500167939122791E4FD7F021225D97BFF7A15
:101ED500167945122791E4FD7F031225D97BFF7AF8
:101EE50016790A122791E4FD7F041225D97BFF7A22
:101EF500167919122791E534646D700302201DE5EA
:101F05004575F00A121CE02430F50AE54575F00A1E
:101F1500121CE0AFF0EF2430F50B7D107F02122587
:101F2500D912278B1228A68F34E534B42FC8E5348F
:101F3500B42F071228A68F3480F4E534642F70037C
:101F450002200B1228A68F34E54575F00A121CE015
:101F55002430F50AE54575F00A121CE0AFF0EF24D0
:101F650030F50B7D107F021225D912278B1227F031
:101F7500E54714604A0460030220057D107F0212C4
:101F850025D9C3E534648094B04075D3E5346480C5
:101F950094B9506CE53424D075F00AA4FFE5457575
:101FA500F00A121CE0AEF0EF2EF54585342FE5342E
:101FB500B52F071228A68F3480F475470180417D1F
:101FC500117F021225D9C3E534648094B04031D322
:101FD500E534648094B95028E54575F00A121CE093
:101FE500AFF0C3E5459FFFE53424D02FF545853493
:101FF5002FE534B52F071228A68F3480F4E4F54772
:102005001227EB021F3FE534B42F071228A68F34A1
:1020150080F4E4F547021EFBE534B46D071228A6EB
:102025008F3480F41225CB7BFF7A15792D122791F9
:10203500E4FD7F021225D97BFF7A1579421227919B
:10204500E4FD7F031225D97BFF7A15795712279175
:10205500E4FD7F041225D97BFF7A15796C0227915F
:102065007509011225CB7BFF7A167955122791E464
:10207500FD7F021225D97BFF7A167960122791E43C
:10208500FD7F031225D97BFF7A167966122791E524
:1020950034646D700302217B1228A68F34E509751F
:1020A500F00A121CE02430F50AE50975F00A121C45
:1020B500E0AFF0EF2430F50B7D067F021225D91233
:1020C500278B1227F0E54714604A04600302215A62
:1020D5007D067F021225D9C3E534648094B040752E
:1020E500D3E534648094B9506CE53424D075F00A96
:1020F500A4FFE50975F00A121CE0AEF0EF2EF50914
:1021050085342FE534B52F071228A68F3480F47552
:10211500470180417D077F021225D9C3E5346480DC
:1021250094B04031D3E534648094B95028E50975FD
:10213500F00A121CE0AFF0C3E5099FFFE53424D097
:102145002FF50985342FE534B52F071228A68F34CE
:1021550080F4E4F5471227EBE534642F6003022091
:1021650094E534B42F071228A68F3480F4E4F5479C
:10217500120003022094E4F547E534B46D071228F4
:10218500A68F3480F41225CB7BFF7A15792D122783
:1021950091E4FD7F021225D97BFF7A15794212273A
:1021A50091E4FD7F031225D97BFF7A157957122714
:1021B50091E4FD7F041225D97BFF7A15796C0227FE
:0121C5009188
:10000300E4F508E50924FE601D047032E4F52F745D
:100013000D252FF8E6FF7449252FF8A607052FE5D0
:100023002FB410EB8018E4F52F741D252FF8E6FF8D
:100033007449252FF8A607052FE52FB410EB1225D9
:10004300CB7BFF7A16797B122791E50975F00A12AB
:100053001CE02430F50AE50975F00A121CE0AFF044
:10006300EF2430F50BE4F50C7D057F011225D91241
:10007300278BE4FD7F021225D97BFF7A1679811243
:100083002791E4FD7F031225D97BFF7A167991121C
:100093002791E54975F064121CE02430F50AE5491F
:1000A30075F064121CE0AFF0EF75F00A121CE02447
:1000B30030F50BE54975F00A121CE0AFF0EF243080
:1000C300F50C7D077F031225D912278BE54A75F0BE
:1000D30064121CE02430F50AE54A75F064121CE052
:1000E300AFF0EF75F00A121CE02430F50BE54A750A
:1000F300F00A121CE0AFF0EF2430F50C7D0D7F0306
:100103001225D912278BE4FD7F041225D97BFF7AB0
:100113001679A2122791E54B75F064121CE0243086
:10012300F50AE54B75F064121CE0AFF0EF75F00AC9
:10013300121CE02430F50BE54B75F00A121CE0AFFE
:10014300F0EF2430F50C7D077F041225D912278B9D
:10015300E54C75F064121CE02430F50AE54C75F0AB
:1001630064121CE0AFF0EF75F00A121CE02430F5C6
:100173000BE54C75F00A121CE0AFF0EF2430F50CE0
:100183007D0D7F041225D97B007A00790A02074886
:10019300E534646D700302074E1228A68F34E534EC
:1001A300642D6005E534B42BE7E534B42D0BD3E5BA
:1001B300086480948040021508E534B42B0BC3E532
:1001C300086480948450020508C3E5086480948021
:1001D3004018D3E50864809480500F78597C007DE3
:1001E300007BFF7A1679B3121E43E50975F00A12F4
:1001F3001CE02430F55EE50975F00A121CE0AFF04F
:10020300EF2430F55FE508F40475F003A42439F80E
:100213007600087600087659C3E508648094804028
:100223001DD3E508648094815014C3740195087547
:10023300F003A42439F876FF087616087681C3E51F
:1002430008648094804018D3E50864809482500F3A
:1002530078597C007D007BFF7A1679BC121E43E53A
:100263004975F064121CE02430F561E54975F064CA
:10027300121CE0AFF0EF75F00A121CE02430F562B7
:10028300E54975F00A121CE0AFF0EF2430F563E5A1
:100293004A75F064121CE02430F565E54A75F06494
:1002A300121CE0AFF0EF75F00A121CE02430F56683
:1002B300E54A75F00A121CE0AFF0EF2430F567C38E
:1002C3007402950875F003A42439F87600087600C3
:1002D300087659C3E508648094804018D3E5086420
:1002E300809483500F78597C007D007BFF7A1679C8
:1002F300CC121E43E54B75F064121CE02430F5610B
:10030300E54B75F064121CE0AFF0EF75F00A121CB8
:10031300E02430F562E54B75F00A121CE0AFF0EF14
:100323002430F563E54C75F064121CE02430F56568
:10033300E54C75F064121CE0AFF0EF75F00A121C87
:10034300E02430F566E54C75F00A121CE0AFF0EFDF
:100353002430F567C37403950875F003A42439F8B2
:100363007600087600087659C3E5086480948140D6
:1003730018D3E50864809484500F78597C007D007D
:100383007BFF7A1679DC121E43E54D75F064121C6F
:10039300E02430F561E54D75F064121CE0AFF0EF39
:1003A30075F00A121CE02430F562E54D75F00A126F
:1003B3001CE0AFF0EF2430F563E54E75F064121CDA
:1003C300E02430F565E54E75F064121CE0AFF0EF04
:1003D30075F00A121CE02430F566E54E75F00A123A
:1003E3001CE0AFF0EF2430F567C37404950875F093
:1003F30003A42439F87600087600087659C3E50883
:10040300648094824018D3E50864809485500F7803
:10041300597C007D007BFF7A1679EC121E43E54F71
:1004230075F064121CE02430F561E54F75F0641239
:100433001CE0AFF0EF75F00A121CE02430F562E522
:100443004F75F00A121CE0AFF0EF2430F563E5506E
:1004530075F064121CE02430F565E55075F0641204
:100463001CE0AFF0EF75F00A121CE02430F566E5EE
:100473005075F00A121CE0AFF0EF2430F567C37437
:1004830005950875F003A42439F87600087600086A
:100493007659C3E508648094834018D3E5086480E3
:1004A3009486500F78597C007D007BFF7A1679FC87
:1004B300121E43E55175F064121CE02430F561E52A
:1004C3005175F064121CE0AFF0EF75F00A121CE0F6
:1004D3002430F562E55175F00A121CE0AFF0EF2409
:1004E30030F563E55275F064121CE02430F565E5E0
:1004F3005275F064121CE0AFF0EF75F00A121CE0C5
:100503002430F566E55275F00A121CE0AFF0EF24D3
:1005130030F567C37406950875F003A42439F8769B
:1005230000087600087659C3E5086480948440186F
:10053300D3E50864809487500F78597C007D007B55
:10054300FF7A17790C121E43E55375F064121CE011
:100553002430F561E55375F064121CE0AFF0EF75DC
:10056300F00A121CE02430F562E55375F00A121C00
:10057300E0AFF0EF2430F563E55475F064121CE04E
:100583002430F565E55475F064121CE0AFF0EF75A7
:10059300F00A121CE02430F566E55475F00A121CCB
:1005A300E0AFF0EF2430F567C37407950875F003E7
:1005B300A42439F87600087600087659C3E5086460
:1005C3008094854018D3E50864809487500F785948
:1005D3007C007D007BFF7A17791C121E43E555755D
:1005E300F064121CE02430F561E55575F064121CCB
:1005F300E0AFF0EF75F00A121CE02430F562E55528
:1006030075F00A121CE0AFF0EF2430F563E5567580
:10061300F064121CE02430F565E55675F064121C95
:10062300E0AFF0EF75F00A121CE02430F566E556F2
:1006330075F00A121CE0AFF0EF2430F567C37408BD
:10064300950875F003A42439F87600087600087637
:1006530059C3E508648094864018D3E50864809400
:1006630087500F78597C007D007BFF7A17792C1215
:100673001E43E55775F064121CE02430F561E5571D
:1006830075F064121CE0AFF0EF75F00A121CE02461
:1006930030F562E55775F00A121CE0AFF0EF243035
:1006A300F563E55875F064121CE02430F565E558F0
:1006B30075F064121CE0AFF0EF75F00A121CE02431
:1006C30030F566E55875F00A121CE0AFF0EF243000
:1006D300F567C37409950875F003A42439F8760007
:1006E300087600087659C3E50864809487401DD3D3
:1006F300E508648094875014C3740A950875F00361
:10070300A42439F876FF08761708763C1225D5AB72
:1007130039AA3AA93B122791E4FD7F021225D9ABEE
:100723003CAA3DA93E122791E4FD7F031225D9ABD4
:100733003FAA40A941122791E4FD7F041225D9ABBA
:1007430042AA43A944122791020193E534B46D07E9
:100753001228A68F3480F4E4F508F50C1225CB7B20
:10076300FF7A167955122791E4FD7F021225D97B72
:10077300FF7A167960122791E4FD7F031225D97B56
:08078300FF7A16796602279146
:1022D1007546011225CB7BFF7A17794C122791E4C1
:1022E100FD7F021225D97BFF7A177961122791E4CC
:1022F100FD7F031225D97BFF7A177971122791E4AB
:10230100FD7F041225D97BFF7A167966122791E5A4
:1023110034646D605E1228A68F34E5462430F50AD8
:102321007D0E7F021225D9AF0A1227ED7D0E7F02A5
:102331001225D9C3E534648094B0401ED3E53464DA
:102341008094B95015E53424D0F54685342FE53411
:10235100B52F071228A68F3480F4E534B42F0FE58A
:1023610034B42F071228A68F3480F41221C6122705
:10237100EB809CE534B46D071228A68F3480F412EB
:1023810025CB7BFF7A15792D122791E4FD7F02126F
:1023910025D97BFF7A157942122791E4FD7F03123B
:1023A10025D97BFF7A157957122791E4FD7F041215
:0B23B10025D97BFF7A15796C0227917B
:1021C6001225CB7BFF7A177981122791E5462430B9
:1021D600F50A7D0E7F011225D9AF0A122842E5467F
:1021E60014B40700400302227C9021FD75F003A47D
:1021F600C58325F0C58373022212022221022230F2
:1022060002223F02224E02225D02226C7D117F01D4
:102216001225D97BFF7A14799280587D117F01129D
:1022260025D97BFF7A14799680497D117F01122585
:10223600D97BFF7A14799A803A7D117F011225D9CC
:102246007BFF7A14799E802B7D117F011225D97B25
:10225600FF7A1479A2801C7D117F011225D97BFF9C
:102266007A1479A6800D7D117F011225D97BFF7A1C
:102276001479AA122791E534646D60071228A68F97
:102286003480F3E534B46D071228A68F3480F41237
:1022960025CB7BFF7A17794C122791E4FD7F02123A
:1022A60025D97BFF7A177961122791E4FD7F031206
:1022B60025D97BFF7A177971122791E4FD7F0412E5
:0B22C60025D97BFF7A1679660227916C
:0428AF0085384822FE
:0128B3002202
:0128B4002201
:1023BC00C2B0D2B1D2B2D2B320B4091227F030B429
:1023CC00FD7F372220B5091227F030B5FD7F38226A
:1023DC0020B6091227F030B6FD7F392220B709123A
:1023EC0027F030B7FD7F2F22D2B0C2B1D2B2D2B318
:1023FC0020B4091227F030B4FD7F342220B5091225
:10240C0027F030B5FD7F352220B6091227F030B603
:10241C00FD7F362220B7091227F030B7FD7F7822D6
:10242C00D2B0D2B1C2B2D2B320B4091227F030B4B8
:10243C00FD7F312220B5091227F030B5FD7F322205
:10244C0020B6091227F030B6FD7F332220B70912CF
:10245C0027F030B7FD7F2D22D2B0D2B1D2B2C2B3A9
:10246C0020B4091227F030B4FD7F6D2220B509127B
:10247C0027F030B5FD7F302220B6091227F030B698
:10248C00FD7F3D2220B7091227F030B7FD7F2B22AC
:03249C007F6E222E
:0928A60075346E1223BC8F34223C
:10254800022891E493A3F8E493A34003F68001F2F0
:1025580008DFF48029E493A3F85407240CC8C33394
:10256800C4540F4420C8834004F456800146F6DF63
:10257800E4800B0102040810204080902701E47ECB
:10258800019360BCA3FF543F30E509541FFEE49358
:10259800A360010ECF54C025E060A840B8E493A31F
:1025A800FAE493A3F8E493A3C8C582C8CAC583CA4A
:1025B800F0A3C8C582C8CAC583CADFE9DEE780BE02
:012753000085
:101CE000C2D530F707B2D563F0FF05F030E70CB28C
:101CF000D5F4048463F0FF05F080018430D502F44C
:021D00000422BB
:101D0200BB010CE58229F582E5833AF583E0225096
:101D120006E92582F8E622BBFE06E92582F8E222E0
:0D1D2200E58229F582E5833AF583E49322FA
:101D2F00EF8DF0A4A8F0CF8CF0A428CE8DF0A42EC8
:021D3F00FE2282
:101D4100C2D5EC30E709B2D5E4C39DFDE49CFCEEBD
:101D510030E715B2D5E4C39FFFE49EFE121E60C3B7
:101D6100E49DFDE49CFC8003121E6030D507C3E4B2
:061D71009FFFE49EFE222C
:101D7700E709F60870FA8046E709F20870FA803E2C
:101D870088828C83E709F0A370FA807EE309F6085E
:101D970070FA8076E309F20870FA806E88828C8385
:101DA700E309F0A370FA806289828A83E0A3F608C8
:101DB70070FA805689828A83E0A3F20870FA804A13
:101DC70080D280FA80C680D4806580F2803180100E
:101DD70080A680EA809A80A880DA80E280CA803173
:101DE70089828A83ECFAE493A3C8C582C8CCC583E9
:101DF700CCF0A3C8C582C8CCC583CC70E9800D8957
:101E0700828A83E493A3F60870F9ECFAA9F0EDFB54
:101E17002289828A83ECFAE0A3C8C582C8CCC5832D
:101E2700CCF0A3C8C582C8CCC583CC70EA80DD8955
:101E3700828A83E493A3F20870F980CE88F0ED24B8
:101E470002B4040050C4F582EB2402B4040050BA73
:091E57002323458223901DC7736B
:101E6000BC000BBE0029EF8DF084FFADF022E4CC66
:101E7000F875F008EF2FFFEE33FEEC33FCEE9DEC2F
:101E8000984005FCEE9DFE0FD5F0E9E4CEFD22ED75
:101E9000F8F5F0EE8420D21CFEADF075F008EF2FBF
:101EA000FFED33FD4007985006D5F0F222C398FDB0
:051EB0000FD5F0EA224D
:00000001FF
